{
  "contractName": "TokenBalances",
  "abi": [
    {
      "inputs": [
        {
          "internalType": "address",
          "name": "walletAddress",
          "type": "address"
        },
        {
          "internalType": "address[]",
          "name": "tokenAddresses",
          "type": "address[]"
        }
      ],
      "name": "getBalances",
      "outputs": [
        {
          "components": [
            {
              "internalType": "address",
              "name": "token",
              "type": "address"
            },
            {
              "internalType": "uint256",
              "name": "balance",
              "type": "uint256"
            }
          ],
          "internalType": "struct TokenBalances.TokenAmount[]",
          "name": "",
          "type": "tuple[]"
        }
      ],
      "stateMutability": "view",
      "type": "function",
      "constant": true
    }
  ],
  "bytecode": "0x608060405234801561001057600080fd5b506106c6806100206000396000f3fe608060405234801561001057600080fd5b506004361061002b5760003560e01c80636a385ae914610030575b600080fd5b61004a600480360381019061004591906103e6565b610060565b6040516100579190610548565b60405180910390f35b60606000825167ffffffffffffffff81111561007f5761007e6102a3565b5b6040519080825280602002602001820160405280156100b857816020015b6100a56101eb565b81526020019060019003908161009d5790505b50905060005b83518167ffffffffffffffff1610156101e0576000848267ffffffffffffffff16815181106100f0576100ef61056a565b5b6020026020010151905060008173ffffffffffffffffffffffffffffffffffffffff166370a08231886040518263ffffffff1660e01b815260040161013591906105a8565b602060405180830381865afa158015610152573d6000803e3d6000fd5b505050506040513d601f19601f8201168201806040525081019061017691906105ef565b905060405180604001604052808373ffffffffffffffffffffffffffffffffffffffff16815260200182815250848467ffffffffffffffff16815181106101c0576101bf61056a565b5b6020026020010181905250505080806101d89061065f565b9150506100be565b508091505092915050565b6040518060400160405280600073ffffffffffffffffffffffffffffffffffffffff168152602001600081525090565b6000604051905090565b600080fd5b600080fd5b600073ffffffffffffffffffffffffffffffffffffffff82169050919050565b600061025a8261022f565b9050919050565b61026a8161024f565b811461027557600080fd5b50565b60008135905061028781610261565b92915050565b600080fd5b6000601f19601f8301169050919050565b7f4e487b7100000000000000000000000000000000000000000000000000000000600052604160045260246000fd5b6102db82610292565b810181811067ffffffffffffffff821117156102fa576102f96102a3565b5b80604052505050565b600061030d61021b565b905061031982826102d2565b919050565b600067ffffffffffffffff821115610339576103386102a3565b5b602082029050602081019050919050565b600080fd5b600061036261035d8461031e565b610303565b905080838252602082019050602084028301858111156103855761038461034a565b5b835b818110156103ae578061039a8882610278565b845260208401935050602081019050610387565b5050509392505050565b600082601f8301126103cd576103cc61028d565b5b81356103dd84826020860161034f565b91505092915050565b600080604083850312156103fd576103fc610225565b5b600061040b85828601610278565b925050602083013567ffffffffffffffff81111561042c5761042b61022a565b5b610438858286016103b8565b9150509250929050565b600081519050919050565b600082825260208201905092915050565b6000819050602082019050919050565b6104778161024f565b82525050565b6000819050919050565b6104908161047d565b82525050565b6040820160008201516104ac600085018261046e565b5060208201516104bf6020850182610487565b50505050565b60006104d18383610496565b60408301905092915050565b6000602082019050919050565b60006104f582610442565b6104ff818561044d565b935061050a8361045e565b8060005b8381101561053b57815161052288826104c5565b975061052d836104dd565b92505060018101905061050e565b5085935050505092915050565b6000602082019050818103600083015261056281846104ea565b905092915050565b7f4e487b7100000000000000000000000000000000000000000000000000000000600052603260045260246000fd5b6105a28161024f565b82525050565b60006020820190506105bd6000830184610599565b92915050565b6105cc8161047d565b81146105d757600080fd5b50565b6000815190506105e9816105c3565b92915050565b60006020828403121561060557610604610225565b5b6000610613848285016105da565b91505092915050565b7f4e487b7100000000000000000000000000000000000000000000000000000000600052601160045260246000fd5b600067ffffffffffffffff82169050919050565b600061066a8261064b565b915067ffffffffffffffff8214156106855761068461061c565b5b60018201905091905056fea264697066735822122052ad8fe56b78ab3036a847266902c24d7e284a7a3f26fed1dd3db40b5e89db7564736f6c634300080c0033",
  "immutableReferences": {},
  "source": "// SPDX-License-Identifier: MIT\npragma solidity >=0.4.22 <0.9.0;\n\ninterface IERC20_simple {\n    function balanceOf(address account) external view returns (uint256);\n}\n\ncontract TokenBalances {\n    struct TokenAmount {\n        address token;\n        uint256 balance;\n    }\n\n    function getBalances(address walletAddress, address[] memory tokenAddresses)\n        public\n        view\n        returns (TokenAmount[] memory)\n    {\n        TokenAmount[] memory tokenAmounts = new TokenAmount[](\n            tokenAddresses.length\n        );\n        for (uint64 i = 0; i < tokenAddresses.length; i++) {\n            address token = tokenAddresses[i];\n            uint256 balance = IERC20_simple(token).balanceOf(walletAddress);\n            tokenAmounts[i] = TokenAmount(token, balance);\n        }\n        return tokenAmounts;\n    }\n}\n",
  "sourcePath": "/Users/colinho/Desktop/Code/code-challenge/src/problem5/contracts/TokenBalances.sol",
  "compiler": {
    "name": "solc",
    "version": "0.8.12+commit.f00d7308.Emscripten.clang"
  },
  "schemaVersion": "3.4.6",
  "updatedAt": "2022-03-25T19:13:38.129Z",
  "networkType": "ethereum",
  "devdoc": {
    "kind": "dev",
    "methods": {},
    "version": 1
  },
  "userdoc": {
    "kind": "user",
    "methods": {},
    "version": 1
  }
}